{
    "contractName": "StakingPool",
    "abi": [
        {
            "inputs": [],
            "stateMutability": "nonpayable",
            "type": "constructor"
        },
        {
            "anonymous": false,
            "inputs": [
                {
                    "indexed": true,
                    "internalType": "address",
                    "name": "admin",
                    "type": "address"
                }
            ],
            "name": "AdminRemoved",
            "type": "event"
        },
        {
            "anonymous": false,
            "inputs": [
                {
                    "indexed": true,
                    "internalType": "address",
                    "name": "admin",
                    "type": "address"
                }
            ],
            "name": "NewAdmin",
            "type": "event"
        },
        {
            "anonymous": false,
            "inputs": [
                {
                    "indexed": true,
                    "internalType": "address",
                    "name": "previousOwner",
                    "type": "address"
                },
                {
                    "indexed": true,
                    "internalType": "address",
                    "name": "newOwner",
                    "type": "address"
                }
            ],
            "name": "OwnershipTransferred",
            "type": "event"
        },
        {
            "stateMutability": "payable",
            "type": "fallback"
        },
        {
            "inputs": [],
            "name": "CSC_PAY_BALANCE",
            "outputs": [
                {
                    "internalType": "uint256",
                    "name": "",
                    "type": "uint256"
                }
            ],
            "stateMutability": "view",
            "type": "function"
        },
        {
            "inputs": [],
            "name": "CSC_POOL_BALANCE",
            "outputs": [
                {
                    "internalType": "uint256",
                    "name": "",
                    "type": "uint256"
                }
            ],
            "stateMutability": "view",
            "type": "function"
        },
        {
            "inputs": [],
            "name": "CSC_WALLET_BALANCE",
            "outputs": [
                {
                    "internalType": "uint256",
                    "name": "",
                    "type": "uint256"
                }
            ],
            "stateMutability": "view",
            "type": "function"
        },
        {
            "inputs": [
                {
                    "internalType": "address",
                    "name": "_tokenTRC20",
                    "type": "address"
                }
            ],
            "name": "ChangeToken",
            "outputs": [
                {
                    "internalType": "bool",
                    "name": "",
                    "type": "bool"
                }
            ],
            "stateMutability": "nonpayable",
            "type": "function"
        },
        {
            "inputs": [
                {
                    "internalType": "address",
                    "name": "_tokenTRC20",
                    "type": "address"
                }
            ],
            "name": "ChangeTokenOTRO",
            "outputs": [
                {
                    "internalType": "bool",
                    "name": "",
                    "type": "bool"
                }
            ],
            "stateMutability": "nonpayable",
            "type": "function"
        },
        {
            "inputs": [],
            "name": "MIN_DEPOSIT",
            "outputs": [
                {
                    "internalType": "uint256",
                    "name": "",
                    "type": "uint256"
                }
            ],
            "stateMutability": "view",
            "type": "function"
        },
        {
            "inputs": [],
            "name": "RATE",
            "outputs": [
                {
                    "internalType": "uint256",
                    "name": "",
                    "type": "uint256"
                }
            ],
            "stateMutability": "view",
            "type": "function"
        },
        {
            "inputs": [],
            "name": "TOTAL_PARTICIPACIONES",
            "outputs": [
                {
                    "internalType": "uint256",
                    "name": "",
                    "type": "uint256"
                }
            ],
            "stateMutability": "view",
            "type": "function"
        },
        {
            "inputs": [],
            "name": "TOTAL_POOL",
            "outputs": [
                {
                    "internalType": "uint256",
                    "name": "",
                    "type": "uint256"
                }
            ],
            "stateMutability": "view",
            "type": "function"
        },
        {
            "inputs": [
                {
                    "internalType": "address",
                    "name": "",
                    "type": "address"
                }
            ],
            "name": "admin",
            "outputs": [
                {
                    "internalType": "bool",
                    "name": "",
                    "type": "bool"
                }
            ],
            "stateMutability": "view",
            "type": "function"
        },
        {
            "inputs": [
                {
                    "internalType": "uint256",
                    "name": "_value",
                    "type": "uint256"
                }
            ],
            "name": "asignarPerdida",
            "outputs": [
                {
                    "internalType": "uint256",
                    "name": "",
                    "type": "uint256"
                }
            ],
            "stateMutability": "nonpayable",
            "type": "function"
        },
        {
            "inputs": [],
            "name": "fin",
            "outputs": [
                {
                    "internalType": "uint256",
                    "name": "",
                    "type": "uint256"
                }
            ],
            "stateMutability": "view",
            "type": "function"
        },
        {
            "inputs": [
                {
                    "internalType": "uint256",
                    "name": "_value",
                    "type": "uint256"
                }
            ],
            "name": "gananciaDirecta",
            "outputs": [
                {
                    "internalType": "uint256",
                    "name": "",
                    "type": "uint256"
                }
            ],
            "stateMutability": "nonpayable",
            "type": "function"
        },
        {
            "inputs": [],
            "name": "inicio",
            "outputs": [
                {
                    "internalType": "uint256",
                    "name": "",
                    "type": "uint256"
                }
            ],
            "stateMutability": "view",
            "type": "function"
        },
        {
            "inputs": [
                {
                    "internalType": "address payable",
                    "name": "_newadmin",
                    "type": "address"
                }
            ],
            "name": "makeNewAdmin",
            "outputs": [],
            "stateMutability": "nonpayable",
            "type": "function"
        },
        {
            "inputs": [
                {
                    "internalType": "address payable",
                    "name": "_oldadmin",
                    "type": "address"
                }
            ],
            "name": "makeRemoveAdmin",
            "outputs": [],
            "stateMutability": "nonpayable",
            "type": "function"
        },
        {
            "inputs": [],
            "name": "owner",
            "outputs": [
                {
                    "internalType": "address payable",
                    "name": "",
                    "type": "address"
                }
            ],
            "stateMutability": "view",
            "type": "function"
        },
        {
            "inputs": [],
            "name": "redimBNB",
            "outputs": [
                {
                    "internalType": "uint256",
                    "name": "",
                    "type": "uint256"
                }
            ],
            "stateMutability": "nonpayable",
            "type": "function"
        },
        {
            "inputs": [
                {
                    "internalType": "uint256",
                    "name": "_value",
                    "type": "uint256"
                }
            ],
            "name": "redimCSC",
            "outputs": [
                {
                    "internalType": "uint256",
                    "name": "",
                    "type": "uint256"
                }
            ],
            "stateMutability": "nonpayable",
            "type": "function"
        },
        {
            "inputs": [],
            "name": "redimOTRO",
            "outputs": [
                {
                    "internalType": "uint256",
                    "name": "",
                    "type": "uint256"
                }
            ],
            "stateMutability": "nonpayable",
            "type": "function"
        },
        {
            "inputs": [
                {
                    "internalType": "uint256",
                    "name": "_participacion",
                    "type": "uint256"
                }
            ],
            "name": "retiro",
            "outputs": [
                {
                    "internalType": "uint256",
                    "name": "",
                    "type": "uint256"
                }
            ],
            "stateMutability": "nonpayable",
            "type": "function"
        },
        {
            "inputs": [
                {
                    "internalType": "uint256",
                    "name": "_value",
                    "type": "uint256"
                }
            ],
            "name": "staking",
            "outputs": [
                {
                    "internalType": "uint256",
                    "name": "",
                    "type": "uint256"
                }
            ],
            "stateMutability": "nonpayable",
            "type": "function"
        },
        {
            "inputs": [
                {
                    "internalType": "address payable",
                    "name": "newOwner",
                    "type": "address"
                }
            ],
            "name": "transferOwnership",
            "outputs": [],
            "stateMutability": "nonpayable",
            "type": "function"
        },
        {
            "stateMutability": "payable",
            "type": "receive"
        }
    ],
    "bytecode": "60806040526002805473389ccc30de1d311738dffd3f60d4fd6188970f456001600160a01b03199182168117909255600380549091169091179055680ad78ebc5ac62000006004556a01b98413944c8e2d2000006005556001600755636189a29060085563618af9ec60095534801561007757600080fd5b50600080546001600160a01b03191633908117825581526001602081905260408220805460ff19169091179055610ef89081906100b490396000f3fe6080604052600436106101375760003560e01c80637be0df97116100b0578063bc896d531161006c578063bc896d531461035f578063be1e19b91461037f578063e1e158a514610395578063ea30f0cf146103ab578063f2fde38b146103c1578063fd14d598146103e157005b80637be0df971461029f5780638929cbc5146102b25780638da5cb5b146102c757806396ba5363146102ff578063a923c1091461031f578063ae77652f1461033f57005b8063383f23a0116100ff578063383f23a0146101ca57806360f05ea7146101ea57806363a846f81461020a578063664e97041461024a57806369ed1e0a1461025f57806370a0966b1461027f57005b8062a36947146101405780631dbb2a22146101695780632735abec14610189578063315a25a11461019e5780633624850e146101b457005b3661013e57005b005b34801561014c57600080fd5b5061015660095481565b6040519081526020015b60405180910390f35b34801561017557600080fd5b50610156610184366004610db3565b6103f6565b34801561019557600080fd5b506101566105a7565b3480156101aa57600080fd5b5061015660075481565b3480156101c057600080fd5b5061015660085481565b3480156101d657600080fd5b506101566101e5366004610db3565b610607565b3480156101f657600080fd5b50610156610205366004610db3565b610645565b34801561021657600080fd5b5061023a610225366004610de4565b60016020526000908152604090205460ff1681565b6040519015158152602001610160565b34801561025657600080fd5b50610156610678565b34801561026b57600080fd5b5061013e61027a366004610de4565b6106af565b34801561028b57600080fd5b5061013e61029a366004610de4565b61073d565b3480156102ab57600080fd5b5047610156565b3480156102be57600080fd5b506101566107c5565b3480156102d357600080fd5b506000546102e7906001600160a01b031681565b6040516001600160a01b039091168152602001610160565b34801561030b57600080fd5b5061023a61031a366004610de4565b6108f2565b34801561032b57600080fd5b5061023a61033a366004610de4565b610938565b34801561034b57600080fd5b5061015661035a366004610db3565b61097e565b34801561036b57600080fd5b5061015661037a366004610db3565b610ab4565b34801561038b57600080fd5b5061015660065481565b3480156103a157600080fd5b5061015660045481565b3480156103b757600080fd5b5061015660055481565b3480156103cd57600080fd5b5061013e6103dc366004610de4565b610c40565b3480156103ed57600080fd5b50610156610cce565b600060045482101561040757600080fd5b6002546040516370a0823160e01b815233600482015283916001600160a01b0316906370a082319060240160206040518083038186803b15801561044a57600080fd5b505afa15801561045e573d6000803e3d6000fd5b505050506040513d601f19601f820116820180604052508101906104829190610e01565b101561048d57600080fd5b6002546040516323b872dd60e01b8152336004820152306024820152604481018490526001600160a01b03909116906323b872dd90606401602060405180830381600087803b1580156104df57600080fd5b505af11580156104f3573d6000803e3d6000fd5b505050506040513d601f19601f820116820180604052508101906105179190610e1a565b61052057600080fd5b8161054461052c610678565b61053e85670de0b6b3a7640000610d3a565b90610d75565b336000908152600a6020526040812080549295509185918391610568908490610e52565b9250508190555083600760008282546105819190610e52565b92505081905550816006600082825461059a9190610e52565b9091555093949350505050565b600080600854421061060257600060095442116105c457426105c8565b6009545b90506008546009546105da9190610e6a565b6008546105e79083610e6a565b6005546105f49190610e81565b6105fe9190610ea0565b9150505b919050565b600080546001600160a01b0316336001600160a01b03161461062857600080fd5b816006600082825461063a9190610e6a565b909155509192915050565b600080546001600160a01b0316336001600160a01b03161461066657600080fd5b816006600082825461063a9190610e52565b60006007546000141561069e576106996106906105a7565b60065490610d97565b905090565b61069960075461053e6106906105a7565b6000546001600160a01b0316336001600160a01b0316146106cf57600080fd5b6001600160a01b0381166106e257600080fd5b6040516001600160a01b038216907f71614071b88dee5e0b2ae578a9dd7b2ebbe9ae832ba419dc0242cd065a290b6c90600090a26001600160a01b03166000908152600160208190526040909120805460ff19169091179055565b6000546001600160a01b0316336001600160a01b03161461075d57600080fd5b6001600160a01b03811661077057600080fd5b6040516001600160a01b038216907fa3b62bc36326052d97ea62d63c3d60308ed4c3ea8ac079dd8499f1e9c4f80c0f90600090a26001600160a01b03166000908152600160205260409020805460ff19169055565b600080546001600160a01b0316336001600160a01b0316146107e657600080fd5b6003546040516370a0823160e01b81523060048201526000916001600160a01b0316906370a082319060240160206040518083038186803b15801561082a57600080fd5b505afa15801561083e573d6000803e3d6000fd5b505050506040513d601f19601f820116820180604052508101906108629190610e01565b60035460005460405163a9059cbb60e01b81526001600160a01b03918216600482015260248101849052929350169063a9059cbb90604401602060405180830381600087803b1580156108b457600080fd5b505af11580156108c8573d6000803e3d6000fd5b505050506040513d601f19601f820116820180604052508101906108ec9190610e1a565b50905090565b600080546001600160a01b0316336001600160a01b03161461091357600080fd5b50600380546001600160a01b0383166001600160a01b03199091161790556001919050565b600080546001600160a01b0316336001600160a01b03161461095957600080fd5b50600280546001600160a01b0383166001600160a01b03199091161790556001919050565b600080546001600160a01b0316336001600160a01b03161461099f57600080fd5b6002546040516370a0823160e01b815230600482015283916001600160a01b0316906370a082319060240160206040518083038186803b1580156109e257600080fd5b505afa1580156109f6573d6000803e3d6000fd5b505050506040513d601f19601f82011682018060405250810190610a1a9190610e01565b1015610a2557600080fd5b60025460005460405163a9059cbb60e01b81526001600160a01b0391821660048201526024810185905291169063a9059cbb90604401602060405180830381600087803b158015610a7557600080fd5b505af1158015610a89573d6000803e3d6000fd5b505050506040513d601f19601f82011682018060405250810190610aad9190610e1a565b5090919050565b60006009544210610c3b57336000908152600a602052604090208054831115610adc57600080fd5b6000610af0610ae9610678565b8590610d3a565b9050610b0481670de0b6b3a7640000610d75565b905080610b126106906105a7565b1015610b1d57600080fd5b60025460405163a9059cbb60e01b8152336004820152602481018390526001600160a01b039091169063a9059cbb90604401602060405180830381600087803b158015610b6957600080fd5b505af1158015610b7d573d6000803e3d6000fd5b505050506040513d601f19601f82011682018060405250810190610ba19190610e1a565b610baa57600080fd5b83826000016000828254610bbe9190610e6a565b925050819055508360076000828254610bd79190610e6a565b90915550610be590506105a7565b60066000828254610bf69190610e52565b90915550610c0490506105a7565b60056000828254610c159190610e6a565b925050819055508060066000828254610c2e9190610e6a565b9091555090949350505050565b600080fd5b6000546001600160a01b0316336001600160a01b031614610c6057600080fd5b6001600160a01b038116610c7357600080fd5b600080546040516001600160a01b03808516939216917f8be0079c531659141344cd1fd0a4f28419497f9722a3daafe3b4186f6b6457e091a3600080546001600160a01b0319166001600160a01b0392909216919091179055565b600080546001600160a01b0316336001600160a01b031614610cef57600080fd5b47610cf957600080fd5b600080546040516001600160a01b03909116914780156108fc02929091818181858888f19350505050158015610d33573d6000803e3d6000fd5b5047905090565b600082610d4957506000610d6f565b6000610d558385610e81565b905082610d628583610ea0565b14610d6c57600080fd5b90505b92915050565b6000808211610d8357600080fd5b6000610d8f8385610ea0565b949350505050565b600080610da48385610e52565b905083811015610d6c57600080fd5b600060208284031215610dc557600080fd5b5035919050565b6001600160a01b0381168114610de157600080fd5b50565b600060208284031215610df657600080fd5b8135610d6c81610dcc565b600060208284031215610e1357600080fd5b5051919050565b600060208284031215610e2c57600080fd5b81518015158114610d6c57600080fd5b634e487b7160e01b600052601160045260246000fd5b60008219821115610e6557610e65610e3c565b500190565b600082821015610e7c57610e7c610e3c565b500390565b6000816000190483118215151615610e9b57610e9b610e3c565b500290565b600082610ebd57634e487b7160e01b600052601260045260246000fd5b50049056fea26469706673582212203f76e5d1c22dfca66a139dba22f5b1e60f8c4b6d3edbb65794e7c8841e09428164736f6c63430008090033",
    "sourcePath": "c:/Users/STC/Documents/GitHub/FootBall-ICO/contracts/Staking/staking.sol",
    "compiler": {
        "name": "solc",
        "version": "0.8.9+commit.e5eed63a"
    },
    "functionHashes": {
        "CSC_PAY_BALANCE()": "7be0df97",
        "CSC_POOL_BALANCE()": "2735abec",
        "CSC_WALLET_BALANCE()": "be1e19b9",
        "ChangeToken(address)": "a923c109",
        "ChangeTokenOTRO(address)": "96ba5363",
        "MIN_DEPOSIT()": "e1e158a5",
        "RATE()": "664e9704",
        "TOTAL_PARTICIPACIONES()": "315a25a1",
        "TOTAL_POOL()": "ea30f0cf",
        "admin(address)": "63a846f8",
        "asignarPerdida(uint256)": "383f23a0",
        "fin()": "00a36947",
        "gananciaDirecta(uint256)": "60f05ea7",
        "inicio()": "3624850e",
        "makeNewAdmin(address)": "69ed1e0a",
        "makeRemoveAdmin(address)": "70a0966b",
        "owner()": "8da5cb5b",
        "redimBNB()": "fd14d598",
        "redimCSC(uint256)": "ae77652f",
        "redimOTRO()": "8929cbc5",
        "retiro(uint256)": "bc896d53",
        "staking(uint256)": "1dbb2a22",
        "transferOwnership(address)": "f2fde38b"
    },
    "gasEstimates": {
        "creation": {
            "codeDepositCost": "766400",
            "executionCost": "208344",
            "totalCost": "974744"
        },
        "external": {
            "": "207",
            "CSC_PAY_BALANCE()": "206",
            "CSC_POOL_BALANCE()": "infinite",
            "CSC_WALLET_BALANCE()": "2328",
            "ChangeToken(address)": "26908",
            "ChangeTokenOTRO(address)": "26886",
            "MIN_DEPOSIT()": "2350",
            "RATE()": "infinite",
            "TOTAL_PARTICIPACIONES()": "2374",
            "TOTAL_POOL()": "2372",
            "admin(address)": "2596",
            "asignarPerdida(uint256)": "26754",
            "fin()": "2308",
            "gananciaDirecta(uint256)": "26779",
            "inicio()": "2396",
            "makeNewAdmin(address)": "28091",
            "makeRemoveAdmin(address)": "28095",
            "owner()": "2404",
            "redimBNB()": "infinite",
            "redimCSC(uint256)": "infinite",
            "redimOTRO()": "infinite",
            "retiro(uint256)": "infinite",
            "staking(uint256)": "infinite",
            "transferOwnership(address)": "30526"
        }
    }
}